:020000020000FC
:100000000FEF0DBF18E01EBF80E88093610084E011
:10001000809361003FEF3AB90FE708B930E037B994
:100020002D9A3FE134B92C982B982A982998289832
:10003000442740E050E060E090E0E0E0289A06B11C
:1000400003FF189A0C941F001D990E944B001D99E4
:100050000C94720030990E944D0030990C947200FB
:1000600031990E944F0031990C94720032990E948C
:100070005100329937C033990E945300339932C0EE
:100080000E9460000E9469000E944700D8CF599AE0
:10009000089559980895439508954A95089553955C
:1000A00008955A950895650F640F88F390F740FD01
:1000B0002C9A41FD2B9A42FD2A9A43FD299A0895D4
:1000C00040FD2C9A41FD2B9A42FD2A9A43FD299A24
:1000D000089550FD289A51FD5F9A52FD5E9A53FD96
:1000E0005D9A089574E67A95F1F71D9BFBCF309BDE
:1000F000F9CF319BF7CF329BF5CF339BF3CF0C94E5
:020100001F00DE
:00000001FF
