:100000000C9434000C9451000C9451000C94510049
:100010000C9451000C9451000C9451000C9451001C
:100020000C9451000C9451000C9451000C9451000C
:100030000C9451000C9451000C9451000C945100FC
:100040000C9451000C9451000C946F050C945100C9
:100050000C9451000C9451000C9451000C945100DC
:100060000C9451000C94510011241FBECFEFD8E026
:10007000DEBFCDBF11E0A0E0B1E0E4E9FCE002C0EA
:1000800005900D92A630B107D9F721E0A6E0B1E0C6
:1000900001C01D92A331B207E1F70E9417050C942D
:1000A00048060C940000ECE7F0E010828081806448
:1000B000808380818F778083808180628083EAE77C
:1000C000F0E01082808180688083808187608083F7
:1000D000EEE7F0E0808180628083808180618083B0
:1000E0000895ECE7F0E09081907F90839081892BD8
:1000F0008083EAE7F0E080818064808380917A00E9
:1001000086FDFCCF8091790090E008958AB18B7FC5
:100110008AB98BB184608BB98AB1877F8AB98BB178
:1001200088608BB98AB18F7E8AB98BB180618BB9B7
:100130008AB18F778AB98BB180688BB984B18E7F91
:1001400084B985B1816085B984B1877F84B985B16F
:10015000886085B984B1806184B987B1816087B9CD
:1001600087B1826087B987B1846087B987B18860B9
:1001700087B908954B9B80C04C9B7EC04F9B7CC031
:10018000189B7AC086E090E00E94710090930D0168
:1001900080930C018FE39CE90197F1F700C0000008
:1001A00020910C0130910D01ABEABAEA0E941106D0
:1001B00096958795969587950E94BD0587E090E076
:1001C0000E94710090930901809308018FE39CE9DC
:1001D0000197F1F700C0000020910801309109015A
:1001E000ABEABAEA0E94110696958795969587958F
:1001F0000E94BF0585E090E00E947100909312017B
:10020000809311018FE39CE90197F1F700C0000092
:100210002091110130911201ABEABAEA0E94110655
:1002200096958795969587950E94050684E090E0BF
:100230000E94710090930B0180930A018FE39CE967
:100240000197F1F700C0000020910A0130910B01E5
:10025000ABEABAEA0E94110696958795969587951E
:100260000E940B069FE728E381E0915020408040E8
:10027000E1F700C000007ECF089585B18F7E85B97B
:1002800088B18E7F88B988B18D7F88B988B18B7F1E
:1002900088B988B1886088B90E94BA000895CF9360
:1002A000DF93CDB7DEB728970FB6F894DEBF0FBE49
:1002B000CDBF85B18F7E85B988B1816088B988B19D
:1002C0008D7F88B988B18B7F88B988B1886088B9FB
:1002D0000E94BA0086E090E00E94710090930D01A8
:1002E00080930C0187E090E00E94710090930901D7
:1002F0008093080185E090E00E94710090931201C4
:100300008093110184E090E00E94710090930B01B2
:1003100080930A0120910C0130910D013A832983C9
:1003200020910801309109013C832B832091110118
:10033000309112013E832D8398878F83609106014F
:100340007091070148E050E0CE0101960E9430060E
:1003500028960FB6F894DEBF0FBECDBFDF91CF91C8
:100360000895CF93DF93CDB7DEB728970FB6F894F3
:10037000DEBF0FBECDBF85B18F7E85B988B18160EC
:1003800088B988B18D7F88B988B18B7F88B988B1E9
:10039000877F88B9609106017091070148E050E0BD
:1003A000CE0101960E94200629813A8130930D01E9
:1003B00020930C018B819C8190930901809308010B
:1003C0008D819E8190931201809311018F81988578
:1003D00090930B0180930A01ABEABAEA0E941106DE
:1003E00096958795969587950E94BD058FE39CE924
:1003F0000197F1F700C00000209108013091090138
:10040000ABEABAEA0E94110696958795969587956C
:100410000E94BF058FE39CE90197F1F700C000003F
:100420002091110130911201ABEABAEA0E94110643
:1004300096958795969587950E9405068FE39CE98A
:100440000197F1F700C0000020910A0130910B01E3
:10045000ABEABAEA0E94110696958795969587951C
:100460000E940B068FE39CE90197F1F700C00000A2
:1004700028960FB6F894DEBF0FBECDBFDF91CF91A7
:100480000895CF93DF93CDB7DEB728970FB6F894D2
:10049000DEBF0FBECDBF85B18F7E85B988B18E7F9F
:1004A00088B988B1826088B988B18B7F88B988B1F2
:1004B000886088B90E94BA0086E090E00E947100CE
:1004C00090930D0180930C0187E090E00E947100F1
:1004D000909309018093080185E090E00E947100EB
:1004E000909312018093110184E090E00E947100CA
:1004F00090930B0180930A0120910C0130910D0122
:100500003A83298320910801309109013C832B8390
:1005100020911101309112013E832D8398878F83A2
:10052000609104017091050148E050E0CE01019610
:100530000E94300628960FB6F894DEBF0FBECDBFDE
:10054000DF91CF910895CF93DF93CDB7DEB7289792
:100550000FB6F894DEBF0FBECDBF85B18F7E85B9D3
:1005600088B18E7F88B988B1826088B988B18B7F65
:1005700088B988B1877F88B96091040170910501BD
:1005800048E050E0CE0101960E94200629813A8180
:1005900030930D0120930C018B819C819093090174
:1005A000809308018D819E819093120180931101A7
:1005B0008F81988590930B0180930A01ABEABAEA88
:1005C0000E94110696958795969587950E94BD0580
:1005D0008FE39CE90197F1F700C00000209108012A
:1005E00030910901ABEABAEA0E9411069695879507
:1005F000969587950E94BF058FE39CE90197F1F7D7
:1006000000C000002091110130911201ABEABAEA5A
:100610000E94110696958795969587950E940506E6
:100620008FE39CE90197F1F700C0000020910A01D7
:1006300030910B01ABEABAEA0E94110696958795B4
:10064000969587950E940B068FE39CE90197F1F739
:1006500000C0000028960FB6F894DEBF0FBECDBFD5
:10066000DF91CF910895CF93DF93CDB7DEB7289771
:100670000FB6F894DEBF0FBECDBF85B18F7E85B9B2
:1006800088B18E7F88B988B18D7F88B988B1846040
:1006900088B988B1886088B90E94BA0086E090E085
:1006A0000E94710090930D0180930C0187E090E00F
:1006B0000E947100909309018093080185E090E009
:1006C0000E947100909312018093110184E090E0E8
:1006D0000E94710090930B0180930A0120910C01FC
:1006E00030910D013A83298320910801309109014D
:1006F0003C832B8320911101309112013E832D8385
:1007000098878F83609102017091030148E050E067
:10071000CE0101960E94300628960FB6F894DEBFEF
:100720000FBECDBFDF91CF910895CF93DF93CDB7AB
:10073000DEB728970FB6F894DEBF0FBECDBF85B1E8
:100740008F7E85B988B18E7F88B988B18D7F88B951
:1007500088B1846088B988B1877F88B960910201C7
:100760007091030148E050E0CE0101960E942006FE
:1007700029813A8130930D0120930C018B819C815A
:1007800090930901809308018D819E8190931201BD
:10079000809311018F81988590930B0180930A01BA
:1007A000ABEABAEA0E9411069695879596958795C9
:1007B0000E94BD058FE39CE90197F1F700C000009E
:1007C0002091080130910901ABEABAEA0E941106B2
:1007D00096958795969587950E94BF058FE39CE92E
:1007E0000197F1F700C00000209111013091120132
:1007F000ABEABAEA0E941106969587959695879579
:100800000E9405068FE39CE90197F1F700C0000004
:1008100020910A0130910B01ABEABAEA0E9411065D
:1008200096958795969587950E940B068FE39CE990
:100830000197F1F700C0000028960FB6F894DEBFCC
:100840000FBECDBFDF91CF910895CF93DF93CDB78A
:10085000DEB728970FB6F894DEBF0FBECDBF85B1C7
:10086000806185B988B18E7F88B988B18D7F88B95C
:1008700088B18B7F88B988B1886088B90E94BA0036
:1008800086E090E00E94710090930D0180930C012E
:1008900087E090E00E947100909309018093080125
:1008A00085E090E00E947100909312018093110105
:1008B00084E090E00E94710090930B0180930A0104
:1008C00020910C0130910D013A8329832091080178
:1008D000309109013C832B83209111013091120149
:1008E0003E832D8398878F83609100017091010171
:1008F00048E050E0CE0101960E94300628960FB6DF
:10090000F894DEBF0FBECDBFDF91CF910895CF9396
:10091000DF93CDB7DEB728970FB6F894DEBF0FBED2
:10092000CDBF85B1806185B988B18E7F88B988B126
:100930008D7F88B988B18B7F88B988B1877F88B966
:10094000609100017091010148E050E0CE010196F4
:100950000E94200629813A8130930D0120930C01D9
:100960008B819C8190930901809308018D819E81E8
:1009700090931201809311018F81988590930B01C0
:1009800080930A01ABEABAEA0E9411069695879510
:10099000969587950E94BD058FE39CE90197F1F735
:1009A00000C000002091080130910901ABEABAEAC9
:1009B0000E94110696958795969587950E94BF058A
:1009C0008FE39CE90197F1F700C00000209111012D
:1009D00030911201ABEABAEA0E941106969587950A
:1009E000969587950E9405068FE39CE90197F1F79C
:1009F00000C0000020910A0130910B01ABEABAEA75
:100A00000E94110696958795969587950E940B06EC
:100A10008FE39CE90197F1F700C0000028960FB61C
:100A2000F894DEBF0FBECDBFDF91CF91089560E097
:100A300074E080E00E94930560E074E080E00E9432
:100A4000AA0560E074E080E00E94C10560E074E007
:100A500080E00E94E4050E9486000E94530086E028
:100A600090E00E94710087E090E00E94710085E0B4
:100A700090E00E94710084E090E00E94710085B1D6
:100A80008F7E85B988B18E7F88B988B18D7F88B90E
:100A900088B18B7F88B988B1877F88B9189B0E94FD
:100AA0003D014F9905C00E94B1011B9B0E944F015F
:100AB0004C9905C00E94A3021B9B0E9441024B99C6
:100AC00005C00E9495031B9B0E9433034A99E6CF01
:100AD0000E9487041B99E2CF0E942504DFCF1F925A
:100AE0000F920FB60F9211248F93EF93FF93E6ECC2
:100AF000F0E0808180930F018081809310018091CC
:100B0000C00085FFFCCF80910F01E6ECF0E0808310
:100B1000809110018083FF91EF918F910F900FBE14
:100B20000F901F9018959AB190649AB914BC8823BD
:100B300021F084B5806C84BD03C084B5806884BD19
:100B400084B5836084BD6115744019F485B58560F2
:100B500085BD08959AB190629AB9882321F084B531
:100B6000806384BD03C084B5806284BD84B5836026
:100B700084BD85B5856085BD089587BD089588BD10
:100B8000089594B1926094B910928000882331F056
:100B9000E0E8F0E08081806C808305C0E0E8F0E070
:100BA000808180688083E0E8F0E0808181608083DC
:100BB000E1E8F0E08081886080836115744019F479
:100BC000808185608083089594B1946094B988236E
:100BD00031F0E0E8F0E080818063808305C0E0E8E8
:100BE000F0E0808180628083E0E8F0E080818160D5
:100BF0008083E1E8F0E08081886080836115744043
:100C000019F4808185608083089590E09093890035
:100C100080938800089590E090938B0080938A00E1
:100C20000895A29FB001B39FC001A39F700D811DC5
:100C30001124911DB29F700D811D1124911D0895E5
:100C4000DC01CB01FC01F999FECF06C0F2BDE1BD8C
:100C5000F89A319600B40D9241505040B8F708957B
:100C6000DC01CB0103C02D910E943B064150504056
:100C7000D0F70895262FF999FECF1FBA92BD81BDF6
:100C800020BD0FB6F894FA9AF99A0FBE019608950E
:040C9000F894FFCF06
:060C94000E0054000100F7
:00000001FF
